:020000040800F2
:10000000C006002039020008E70E0008E30E0008D1
:10001000E50E00082F040008011100080000000090
:10002000000000000000000000000000EB0E0008CF
:100030003104000800000000E90E0008ED0E000881
:10004000530200085302000853020008530200083C
:10005000530200085302000853020008530200082C
:10006000530200085302000853020008530200081C
:10007000530200085302000853020008530200080C
:100080005302000853020008530200080000000059
:100090000000000000000000000000005302000803
:1000A00053020008530200085302000853020008DC
:1000B00053020008530200085302000853020008CC
:1000C00053020008530200085302000853020008BC
:1000D0005302000853020008530200080000000009
:1000E00053020008530200085302000800000000F9
:1000F00000000000000000000000000053020008A3
:1001000000000000530200085302000853020008D8
:1001100000000000000000000000000000000000DF
:10012000530200085302000853020008530200085B
:100130005302000800000000000000000000000062
:100140000000000000000000000000005302000852
:10015000530200085302000853020008530200082B
:1001600053020008530200080000000000000000D5
:10017000000000000000000000000000000000007F
:100180000000000053020008000000000000000012
:10019000530200085302000800F002F800F03CF897
:1001A0000AA090E8000C82448344AAF10107DA45D2
:1001B00001D100F031F8AFF2090EBAE80F0013F0E8
:1001C000010F18BFFB1A43F001031847EC0F0000A2
:1001D0000C100000103A24BF78C878C1FAD8520732
:1001E00024BF30C830C144BF04680C6070470000B1
:1001F0000023002400250026103A28BF78C1FBD830
:10020000520728BF30C148BF0B6070471FB500F0D0
:10021000C1FF1FBD10B510BD00F0CFF81146FFF7AC
:10022000F5FF00F07FFF00F0EDF803B4FFF7F2FFF9
:1002300003BC00F0F5F80000094880470948004772
:10024000FEE7FEE7FEE7FEE7FEE7FEE7FEE7FEE786
:10025000FEE7FEE704480549054A064B70470000E3
:100260006D0F000899010008C0000020C0060020A2
:10027000C0020020C002002053EA020C00F0698096
:100280002DE9F04B4FF00006002B1FBFB3FA83F5AA
:1002900003FA05F424FA05F65E4012BF1643B2FADB
:1002A00082F502FA05F4C5F120051EBF22FA05FC0D
:1002B00044EA0C04203556EA044C4FEA144418BFB3
:1002C000641C4FF000084FF00009904271EB030CE2
:1002D00039D3002919BFB1FA81F701FA07F6B0FA4C
:1002E00080F700FA07F6C7F120071EBF20FA07FCC7
:1002F00046EA0C062037B6FBF4FCA7EB0507103FD7
:1003000007F01F0BCBF120060CFA0BFB2CFA06F6BC
:1003100044BFB3460026202FA4BF5E464FF0000B1B
:100320005BEA060C08BF4FF0010B19EB0B09ABFBA6
:10033000027C48EB0608C01B06FB02CC0BFB03CC7F
:1003400071EB0C01C1E70B46024641464846BDE849
:10035000F08B13B54FF000004FF00001AFF30080B9
:10036000BDE81C4070474FF0000200B513469446AC
:100370009646203922BFA0E80C50A0E80C50B1F1FD
:100380002001BFF4F7AF090728BFA0E80C5048BF11
:100390000CC05DF804EB890028BF40F8042B08BFAF
:1003A000704748BF20F8022B11F0804F18BF00F8AB
:1003B000012B7047704770477047754600F02CF866
:1003C000AE4605006946534620F00700854618B042
:1003D00020B5FFF73FFFBDE820404FF000064FF08B
:1003E00000074FF000084FF0000B21F00701AC466A
:1003F000ACE8C009ACE8C009ACE8C009ACE8C00989
:100400008D46704710B50446AFF300802046BDE826
:100410001040FFF70ABF000000487047600000204E
:1004200001491820ABBEFEE7260002007047FEE738
:10043000704700002DE9F84FDFF8B8A10022012431
:100440000AF1040B03254FF00F090BF1040E00BF56
:100450000B6804FA02F63340B34273D10F7907F008
:100460000307012F01D0022F16D187684FEA4208F7
:1004700005FA08FC27EA0C07D1F80CC00CFA08FCB6
:100480004CEA070CC0F808C04768B7430E79C6F3BA
:10049000001696403E4346600E79F643B6070DD0EF
:1004A000C768560005FA06FC27EA0C07D1F808C011
:1004B0000CFA06FC4CEA070CC0F80CC00E7906F0EA
:1004C0000306022E10D1D60800EB8608D8F820606B
:1004D00057074FEAD76C09FA0CF7BE430F6907FAC2
:1004E0000CF73743C8F8207006684FEA420C05FA4B
:1004F0000CF7BE430F7907F0030707FA0CF73743F1
:1005000007604E6816F4403F6DD03B4E376847F4A5
:1005100080473760366822F0030706F4804600966D
:10052000364E07EB060CDCF8086897073F0F09FA10
:1005300007F826EA0806DFF8C880404503D14FF0E7
:1005400000081EE04FE0DFF8BC80404502D14FF0CC
:10055000010816E0DFF8B080404502D14FF00208F4
:100560000FE0DFF8A880404502D14FF0030808E013
:10057000DFF89C80404502D14FF0040801E04FF0C5
:10058000070808FA07F848EA0608CCF80888DAF8F5
:1005900000605746D1F804C09E435FEACC3C00D5CA
:1005A0001E433E60DBF800605F46D1F804C09E4306
:1005B0005FEA8C3C00D51E433E60DEF80060774663
:1005C000D1F804C09E435FEACC2C00D51E433E60A8
:1005D000084F0C373E68D1F804C09E435FEA8C2C6C
:1005E00000D51E433E60521C102AFFF431AFBDE817
:1005F000F88F0000003C01404438024000300140C8
:10060000000002400004024000080240000C0240CA
:100610000010024001488068704700000000002080
:100620000248816802781144816070470000002010
:100630000B4810B5016841F400710160016841F494
:1006400080610160016841F480710160032000F065
:1006500061F80F2000F006F800F024F8002010BD2B
:10066000003C024070B50D4D04464FF47A71287875
:10067000B1FBF0F00A490968B1FBF0F000F0FEFAB6
:1006800048B9102C07D200222146501E00F022F853
:1006900000206C6070BD012070BD000000000020D3
:1006A0000C0000200A4808B5016841F4804101604F
:1006B000006800F4804000900548001F016841F088
:1006C00080510160006800F08050009008BD00007B
:1006D00044380240F0B40E4B1B680C46C3F30223AF
:1006E000C3F10705042D00D90425191D072901D2DE
:1006F000002300E0DB1E012606FA05F1491E214019
:1007000099409E40761E16403143F0BC00F0F9BC83
:100710000CED00E0064900F0070208684FF6FF0301
:10072000184040EA0220034A104308607047000066
:100730000CED00E00000FA052DE9F0470E4605003B
:1007400065D0DFF81481D8F80000F7B200F0070098
:10075000B04207D288F80070D8F8000000F0070017
:10076000B04254D128683D4C810712D5400703D5CB
:10077000206840F4E05020602878000703D5206806
:1007800040F4604020602068A96820F0F000084331
:1007900020602878C0072DD03049686808390128C2
:1007A00012D0022813D0032811D009688907002924
:1007B0002DDA216821F0030101432160FFF72AFFB0
:1007C000814641F2883A0EE009688903EFE709683B
:1007D0008901ECE7FFF71EFFA0EB0901514502D9A3
:1007E0000320BDE8F0872068696800F00C00B0EBDA
:1007F000810FEFD1D8F80010404601F00701B14257
:1008000007D90770006800F00700B04201D001204E
:10081000E7E72878400705D52068E96820F4E0502C
:10082000084320602878000706D52068296920F44D
:10083000604040EAC100206000F038F82168084AB2
:10084000C1F30311515CC8400649086006480068BE
:10085000FFF708FF0020C4E7003C024008380240D0
:100860009E1100080C0000200400002004480549E7
:1008700000680968044AC1F38221515CC84070478E
:100880000C00002008380240AE1100080448054959
:1008900000680968044AC1F34231515CC84070479E
:1008A0000C00002008380240AE110008154810B5B1
:1008B000006810F00C02144813D01449042A0FD019
:1008C000082A0ED10F4C241F2268236802F03F0231
:1008D0005B0207D52068C0F38810A0FB010106E089
:1008E000084610BD2168C1F38811A1FB0001002357
:1008F000FFF7C2FC2168C1F30141491C4900B0FB6C
:10090000F1F010BD083802400024F40040787D0169
:100910002DE9F84F04006ED02078DFF84C93C00723
:10092000A9F104054AD009F104000168C1F381016D
:10093000012908D00068C0F3810002280AD1D9F843
:100940000000400206D52868800337D5606800287B
:10095000E1D033E06068B0F5803F10D0B0F5A02F53
:10096000286810D020F480302860286820F4802087
:1009700028606068A8B1FFF74DFE06460DE02868C4
:1009800040F48030F4E740F480202860F7E700BFAF
:10099000FFF740FE801B642873D828688003F7D5D2
:1009A0000CE0FFF737FE064605E000BFFFF732FE1A
:1009B000801B6428F0D828688003F7D42078DFF8FB
:1009C000AC8280074FF0000A3ED5A748001D0168A1
:1009D00011F00C0F08D00068C0F3810002280BD181
:1009E000D9F80000400207D42868800716D5E068CF
:1009F000012800D112E033E1E068B8B10120C8F865
:100A00000000FFF707FE064605E000BFFFF702FE05
:100A1000801B0228C0D828688007F7D5286821697C
:100A200020F0F80040EAC10028600DE0C8F800A0FE
:100A3000FFF7F0FD064604E0FFF7ECFD801B0228FF
:100A40001FD828688007F7D42078000722D5864F62
:100A500087486169703771B101210160FFF7DAFDE4
:100A6000064604E0FFF7D6FD801B022809D8386847
:100A70008007F7D50EE0C0F800A0FFF7CBFD0646D3
:100A800005E082E0FFF7C6FD801B02287DD83868AC
:100A90008007F7D42078400768D5DFF8CCB100276D
:100AA0000BF13C0BDBF80000C0000BD4DBF80010AE
:100AB00041F08051CBF80010DBF80000012700F076
:100AC000805000906B4E3068C00510D4306840F400
:100AD00080703060FFF79EFD009005E0FFF79AFD03
:100AE0000099401A022850D83068C005F6D55E4EED
:100AF000A0686C3601280FD00528306810D020F08F
:100B000001003060306820F004003060A068B8B1A7
:100B1000FFF780FD00900FE0306840F00100F4E73F
:100B200040F004003060F7E7FFF774FD0099411AC8
:100B300041F28830814266D830688007F4D50EE0F3
:100B4000FFF768FD009007E0FFF764FD0099411A88
:100B500041F28830814256D830688007F4D42FB1F2
:100B6000DBF8001021F08051CBF80010A069C8B369
:100B70003D49091D0968C1F3810102294AD00228B3
:100B8000504607D0C8F8600000E03CE0FFF742FDA7
:100B900004463BE04746C8F86000FFF73BFD0646C9
:100BA00005E000BFFFF736FD801B02282BD8286820
:100BB0008001F7D4D4E907010843A16A2E4A490805
:100BC00002EB0141626A41EA8211084394F82C1059
:100BD00040EA0161C9F8001001203866FFF71AFDEC
:100BE000044606E03EE000BFFFF714FD001B0228AC
:100BF00009D828688001F7D534E000BFFFF70AFD67
:100C0000001B022802D90320BDE8F88F2868800164
:100C1000F4D427E00128F7D0D9F80000E26900F405
:100C2000800191421CD1226A00F03F01914217D10C
:100C300047F6C071626A0140B1EB821F10D1A26A0F
:100C40004FF0FF3300F4403103EB5202B1EB024F9F
:100C500006D194F82C1000F07060B0EB016F01D059
:100C60000120D1E70020CFE70438024000004742CE
:100C7000800E4742007000400000FFFF10B5401E8C
:100C8000B0F1807F01D3012010BD4FF0E0246061FE
:100C90000F21601700F035FA0020A06107202061C5
:100CA000002010BD70B5040004D094F83D0000256C
:100CB00010B106E0012070BD84F83C50204600F0E1
:100CC00023F8242084F83D002068C16821F40051F5
:100CD000C160204600F052F92068016921F490417A
:100CE00001612068416921F02A0141612068C168E1
:100CF00041F40051C1602564202084F83D0084F84F
:100D00003E00002070BD000010B586B004461421DE
:100D10006846FFF728FB13492068884220D1124813
:100D20000021026842F400320260006800F40030E2
:100D300005900D481038026842F001020260006818
:100D400000F0010005900C2000900220CDE9010187
:100D5000032003900720049069460448FFF76AFBCC
:100D600006B010BD00440040403802400000024080
:100D70002DE9F84F044690F83E009A4616460D4677
:100D8000202853D1FDB1F6B194F83C0001284DD094
:100D9000012084F83C0000272764222084F83E00CC
:100DA0002763FFF737FCA6858146E685A0684FF4E8
:100DB0008058404501D1206940B12E465FF00005C2
:100DC00084F83C7027E00120BDE8F88F0026F7E7A3
:100DD0004B46002220212046CDF800A000F054F917
:100DE00008B10320F0E726B1A06840451BD038B118
:100DF00008E020684068C0F3080025F8020B07E00F
:100E0000206980B12068406800F07F0006F8010B7F
:100E1000E08D401EE085E08D0028D9D1202084F8A7
:100E20003E000020D0E720684068EFE70220CBE7D3
:100E30002DE9F843044690F83D001F4616460D463E
:100E400020284CD1C5B1BEB194F83C00012846D051
:100E5000012084F83C004FF00008C4F840802120B5
:100E600084F83D00FFF7D6FBA6848146E684A0689F
:100E7000B0F5805F03D004E00120BDE8F88320696D
:100E800028B12E465FF0000584F83C800EE0002675
:100E9000FAE78021204600F0F7F8A0B9AEB116F8C5
:100EA000010B21684860E08C401EE084E08C4B46DA
:100EB0004FF0000200970028EBD14FF04001204690
:100EC00000F0E2F830B10320D7E735F8020BC0F3A9
:100ED0000800E6E7202084F83D000020CDE702204E
:100EE000CBE7FEE7FEE7FEE770477047FFF798BBEA
:100EF00010B592B030216846FFF735FA14210CA8DE
:100F0000FFF731FA17480024016841F08051016071
:100F1000006800F0805011901348016841F440418E
:100F200001600068069400F4404011900220009097
:100F300001200390102004906846FFF7E9FC08B1F7
:100F400072B6FEE70F20CDE90C040E940F94002139
:100F50000CA81094FFF7F0FB002801D072B6FEE752
:100F600012B010BD403802400070004002480168D5
:100F700041F470010160704788ED00E070B50446EF
:100F800000680169E26821F440511143016121695F
:100F9000A068E26908436169114308432168CA688F
:100FA00049F20C639A430243CA6020684169A2690E
:100FB00021F440711143416131492068884202D0D7
:100FC0003049884202D1FFF761FC01E0FFF74EFC97
:100FD000E2690023192164253226B2F5004F6268C8
:100FE00028D0A0FB0101930F9200FFF745F90146BD
:100FF000B0FBF5F06FF01802504301EB800006EBF8
:101000000010B0FBF5F000F0F002B1FBF5F002EBE0
:101010000012B1FBF5F06FF01803584301EB8000AC
:1010200006EB0010B0FBF5F000F00F002168104453
:10103000886070BDA0FB010192185B41FFF71CF9AD
:101040000146B0FBF5F00201B1FBF5F06FF01803BB
:10105000584301EB800006EBC000B0FBF5F000F058
:10106000F80002EB4002B1FBF5F0584301EB8000C1
:1010700006EBC000B0FBF5F000F00700D6E700007B
:1010800000100140001401402DE9F0419846174638
:101090000E460446069D27E0681C25D02DB1FFF7BB
:1010A000B9FAA0EB0800A8421ED920680C3050E81D
:1010B000001F21F4D07140E80012002AF5D1206809
:1010C000143050E8001F21F0010140E80012002A0E
:1010D000F5D1202084F83D0084F83E00002084F8FB
:1010E0003C000320BDE8F0812068006836EA00007B
:1010F00004D00020B842CFD00020F3E70120F9E768
:10110000FEE70907090E002804DB00F1E02080F863
:101110000014704700F00F0000F1E02080F8141D6B
:101120007047000008B5FFF783FAFFF7E1FE1648A5
:101130000021026842F0010202600068134A00F0D8
:1011400001000090124802604FF4E132C0E9012131
:101150000C22C160C0E904128161C161FFF7A2FDE8
:1011600008B172B6FEE70A49642305220C39084823
:10117000FFF7FEFD0028F6D00549642305220C394F
:101180000348FFF755FEEEE73038024000440040C8
:101190001C0000204FF04070E1EE100A7047000084
:1011A0000000000000000102030406070809000017
:1011B0000000010203040000D81100080000002014
:1011C00010000000D4010008E81100081000002001
:1011D000B0060000F001000801000000100000004F
:0811E000000000000024F400EF
:040000050800019955
:00000001FF
